{
  "contractName": "Marketplace",
  "abi": [
    {
      "inputs": [],
      "stateMutability": "nonpayable",
      "type": "constructor"
    },
    {
      "inputs": [
        {
          "internalType": "string",
          "name": "nom",
          "type": "string"
        },
        {
          "internalType": "string",
          "name": "adres",
          "type": "string"
        },
        {
          "internalType": "uint256",
          "name": "price",
          "type": "uint256"
        },
        {
          "internalType": "string[]",
          "name": "img",
          "type": "string[]"
        }
      ],
      "name": "createEstate",
      "outputs": [],
      "stateMutability": "nonpayable",
      "type": "function"
    },
    {
      "inputs": [
        {
          "internalType": "uint256",
          "name": "id",
          "type": "uint256"
        }
      ],
      "name": "setEstateSale",
      "outputs": [],
      "stateMutability": "nonpayable",
      "type": "function"
    },
    {
      "inputs": [
        {
          "internalType": "uint256",
          "name": "id",
          "type": "uint256"
        },
        {
          "internalType": "uint256",
          "name": "newPrice",
          "type": "uint256"
        }
      ],
      "name": "setPrice",
      "outputs": [],
      "stateMutability": "nonpayable",
      "type": "function"
    },
    {
      "inputs": [
        {
          "internalType": "uint256",
          "name": "id",
          "type": "uint256"
        },
        {
          "internalType": "string",
          "name": "newPostalAddress",
          "type": "string"
        }
      ],
      "name": "setPostalAddress",
      "outputs": [],
      "stateMutability": "nonpayable",
      "type": "function"
    },
    {
      "inputs": [
        {
          "internalType": "uint256",
          "name": "id",
          "type": "uint256"
        },
        {
          "internalType": "string",
          "name": "newName",
          "type": "string"
        }
      ],
      "name": "setName",
      "outputs": [],
      "stateMutability": "nonpayable",
      "type": "function"
    },
    {
      "inputs": [
        {
          "internalType": "uint256",
          "name": "id",
          "type": "uint256"
        }
      ],
      "name": "cancelEstateSale",
      "outputs": [],
      "stateMutability": "nonpayable",
      "type": "function"
    },
    {
      "inputs": [
        {
          "internalType": "uint256",
          "name": "id",
          "type": "uint256"
        }
      ],
      "name": "BuyEstate",
      "outputs": [],
      "stateMutability": "payable",
      "type": "function",
      "payable": true
    },
    {
      "inputs": [],
      "name": "getAllEstates",
      "outputs": [
        {
          "components": [
            {
              "internalType": "string",
              "name": "_name",
              "type": "string"
            },
            {
              "internalType": "string",
              "name": "_postalAddress",
              "type": "string"
            },
            {
              "internalType": "string[]",
              "name": "_images",
              "type": "string[]"
            },
            {
              "internalType": "uint256",
              "name": "_price",
              "type": "uint256"
            },
            {
              "internalType": "address payable",
              "name": "_ownerEstate",
              "type": "address"
            },
            {
              "internalType": "bool",
              "name": "_selling",
              "type": "bool"
            }
          ],
          "internalType": "struct Marketplace.estate[]",
          "name": "",
          "type": "tuple[]"
        }
      ],
      "stateMutability": "view",
      "type": "function",
      "constant": true
    },
    {
      "inputs": [
        {
          "internalType": "address",
          "name": "addr",
          "type": "address"
        }
      ],
      "name": "getEstateByAddress",
      "outputs": [
        {
          "components": [
            {
              "internalType": "string",
              "name": "_name",
              "type": "string"
            },
            {
              "internalType": "string",
              "name": "_postalAddress",
              "type": "string"
            },
            {
              "internalType": "string[]",
              "name": "_images",
              "type": "string[]"
            },
            {
              "internalType": "uint256",
              "name": "_price",
              "type": "uint256"
            },
            {
              "internalType": "address payable",
              "name": "_ownerEstate",
              "type": "address"
            },
            {
              "internalType": "bool",
              "name": "_selling",
              "type": "bool"
            }
          ],
          "internalType": "struct Marketplace.estate[]",
          "name": "",
          "type": "tuple[]"
        }
      ],
      "stateMutability": "view",
      "type": "function",
      "constant": true
    },
    {
      "inputs": [
        {
          "internalType": "uint256",
          "name": "id",
          "type": "uint256"
        }
      ],
      "name": "getEstateById",
      "outputs": [
        {
          "components": [
            {
              "internalType": "string",
              "name": "_name",
              "type": "string"
            },
            {
              "internalType": "string",
              "name": "_postalAddress",
              "type": "string"
            },
            {
              "internalType": "string[]",
              "name": "_images",
              "type": "string[]"
            },
            {
              "internalType": "uint256",
              "name": "_price",
              "type": "uint256"
            },
            {
              "internalType": "address payable",
              "name": "_ownerEstate",
              "type": "address"
            },
            {
              "internalType": "bool",
              "name": "_selling",
              "type": "bool"
            }
          ],
          "internalType": "struct Marketplace.estate",
          "name": "",
          "type": "tuple"
        }
      ],
      "stateMutability": "view",
      "type": "function",
      "constant": true
    }
  ],
  "bytecode": "0x608060405234801561001057600080fd5b5033600160006101000a81548173ffffffffffffffffffffffffffffffffffffffff021916908373ffffffffffffffffffffffffffffffffffffffff160217905550612086806100616000396000f3fe6080604052600436106100915760003560e01c80638d43e8f0116100595780638d43e8f01461018d578063b6d81de6146101b6578063ce2a4015146101df578063f7d97577146101fb578063fe55932a1461022457610091565b80630626f3f1146100965780632f05e9e6146100c15780633cbab756146100fe578063558ee2a9146101275780635e55441514610164575b600080fd5b3480156100a257600080fd5b506100ab61024d565b6040516100b89190611d91565b60405180910390f35b3480156100cd57600080fd5b506100e860048036038101906100e39190611838565b610554565b6040516100f59190611d91565b60405180910390f35b34801561010a57600080fd5b5061012560048036038101906101209190611935565b6108fd565b005b34801561013357600080fd5b5061014e6004803603810190610149919061190c565b6109e0565b60405161015b9190611e33565b60405180910390f35b34801561017057600080fd5b5061018b60048036038101906101869190611861565b610cb5565b005b34801561019957600080fd5b506101b460048036038101906101af919061190c565b610f98565b005b3480156101c257600080fd5b506101dd60048036038101906101d8919061190c565b61107e565b005b6101f960048036038101906101f4919061190c565b611164565b005b34801561020757600080fd5b50610222600480360381019061021d9190611989565b6113d9565b005b34801561023057600080fd5b5061024b60048036038101906102469190611935565b6114ac565b005b60606002805480602002602001604051908101604052809291908181526020016000905b8282101561054b57838290600052602060002090600502016040518060c0016040529081600082018054600181600116156101000203166002900480601f01602080910402602001604051908101604052809291908181526020018280546001816001161561010002031660029004801561032d5780601f106103025761010080835404028352916020019161032d565b820191906000526020600020905b81548152906001019060200180831161031057829003601f168201915b50505050508152602001600182018054600181600116156101000203166002900480601f0160208091040260200160405190810160405280929190818152602001828054600181600116156101000203166002900480156103cf5780601f106103a4576101008083540402835291602001916103cf565b820191906000526020600020905b8154815290600101906020018083116103b257829003601f168201915b5050505050815260200160028201805480602002602001604051908101604052809291908181526020016000905b828210156104b9578382906000526020600020018054600181600116156101000203166002900480601f0160208091040260200160405190810160405280929190818152602001828054600181600116156101000203166002900480156104a55780601f1061047a576101008083540402835291602001916104a5565b820191906000526020600020905b81548152906001019060200180831161048857829003601f168201915b5050505050815260200190600101906103fd565b505050508152602001600382015481526020016004820160009054906101000a900473ffffffffffffffffffffffffffffffffffffffff1673ffffffffffffffffffffffffffffffffffffffff1673ffffffffffffffffffffffffffffffffffffffff1681526020016004820160149054906101000a900460ff16151515158152505081526020019060010190610271565b50505050905090565b6060806060600360008573ffffffffffffffffffffffffffffffffffffffff1673ffffffffffffffffffffffffffffffffffffffff1681526020019081526020016000208054806020026020016040519081016040528092919081815260200182805480156105e257602002820191906000526020600020905b8154815260200190600101908083116105ce575b5050505050905060005b81518110156108f2576004600083838151811061060557fe5b602002602001015181526020019081526020016000206040518060c0016040529081600082018054600181600116156101000203166002900480601f0160208091040260200160405190810160405280929190818152602001828054600181600116156101000203166002900480156106bf5780601f10610694576101008083540402835291602001916106bf565b820191906000526020600020905b8154815290600101906020018083116106a257829003601f168201915b50505050508152602001600182018054600181600116156101000203166002900480601f0160208091040260200160405190810160405280929190818152602001828054600181600116156101000203166002900480156107615780601f1061073657610100808354040283529160200191610761565b820191906000526020600020905b81548152906001019060200180831161074457829003601f168201915b5050505050815260200160028201805480602002602001604051908101604052809291908181526020016000905b8282101561084b578382906000526020600020018054600181600116156101000203166002900480601f0160208091040260200160405190810160405280929190818152602001828054600181600116156101000203166002900480156108375780601f1061080c57610100808354040283529160200191610837565b820191906000526020600020905b81548152906001019060200180831161081a57829003601f168201915b50505050508152602001906001019061078f565b505050508152602001600382015481526020016004820160009054906101000a900473ffffffffffffffffffffffffffffffffffffffff1673ffffffffffffffffffffffffffffffffffffffff1673ffffffffffffffffffffffffffffffffffffffff1681526020016004820160149054906101000a900460ff1615151515815250508382815181106108da57fe5b602002602001018190525080806001019150506105ec565b508192505050919050565b3373ffffffffffffffffffffffffffffffffffffffff166002838154811061092157fe5b906000526020600020906005020160040160009054906101000a900473ffffffffffffffffffffffffffffffffffffffff1673ffffffffffffffffffffffffffffffffffffffff16146109a9576040517f08c379a00000000000000000000000000000000000000000000000000000000081526004016109a090611e13565b60405180910390fd5b80600283815481106109b757fe5b906000526020600020906005020160010190805190602001906109db92919061158f565b505050565b6109e861160f565b600460008381526020019081526020016000206040518060c0016040529081600082018054600181600116156101000203166002900480601f016020809104026020016040519081016040528092919081815260200182805460018160011615610100020316600290048015610a9f5780601f10610a7457610100808354040283529160200191610a9f565b820191906000526020600020905b815481529060010190602001808311610a8257829003601f168201915b50505050508152602001600182018054600181600116156101000203166002900480601f016020809104026020016040519081016040528092919081815260200182805460018160011615610100020316600290048015610b415780601f10610b1657610100808354040283529160200191610b41565b820191906000526020600020905b815481529060010190602001808311610b2457829003601f168201915b5050505050815260200160028201805480602002602001604051908101604052809291908181526020016000905b82821015610c2b578382906000526020600020018054600181600116156101000203166002900480601f016020809104026020016040519081016040528092919081815260200182805460018160011615610100020316600290048015610c175780601f10610bec57610100808354040283529160200191610c17565b820191906000526020600020905b815481529060010190602001808311610bfa57829003601f168201915b505050505081526020019060010190610b6f565b505050508152602001600382015481526020016004820160009054906101000a900473ffffffffffffffffffffffffffffffffffffffff1673ffffffffffffffffffffffffffffffffffffffff1673ffffffffffffffffffffffffffffffffffffffff1681526020016004820160149054906101000a900460ff1615151515815250509050919050565b600a8211610cf8576040517f08c379a0000000000000000000000000000000000000000000000000000000008152600401610cef90611dd3565b60405180910390fd5b610d0061160f565b6040518060c001604052808681526020018581526020018381526020018481526020013373ffffffffffffffffffffffffffffffffffffffff16815260200160001515815250905060028190806001815401808255809150506001900390600052602060002090600502016000909190919091506000820151816000019080519060200190610d9092919061158f565b506020820151816001019080519060200190610dad92919061158f565b506040820151816002019080519060200190610dca92919061165d565b506060820151816003015560808201518160040160006101000a81548173ffffffffffffffffffffffffffffffffffffffff021916908373ffffffffffffffffffffffffffffffffffffffff16021790555060a08201518160040160146101000a81548160ff02191690831515021790555050506000600160028054905003905081600460008381526020019081526020016000206000820151816000019080519060200190610e7b92919061158f565b506020820151816001019080519060200190610e9892919061158f565b506040820151816002019080519060200190610eb592919061165d565b506060820151816003015560808201518160040160006101000a81548173ffffffffffffffffffffffffffffffffffffffff021916908373ffffffffffffffffffffffffffffffffffffffff16021790555060a08201518160040160146101000a81548160ff021916908315150217905550905050600360003373ffffffffffffffffffffffffffffffffffffffff1673ffffffffffffffffffffffffffffffffffffffff168152602001908152602001600020819080600181540180825580915050600190039060005260206000200160009091909190915055505050505050565b3373ffffffffffffffffffffffffffffffffffffffff1660028281548110610fbc57fe5b906000526020600020906005020160040160009054906101000a900473ffffffffffffffffffffffffffffffffffffffff1673ffffffffffffffffffffffffffffffffffffffff1614611044576040517f08c379a000000000000000000000000000000000000000000000000000000000815260040161103b90611e13565b60405180910390fd5b60016002828154811061105357fe5b906000526020600020906005020160040160146101000a81548160ff02191690831515021790555050565b3373ffffffffffffffffffffffffffffffffffffffff16600282815481106110a257fe5b906000526020600020906005020160040160009054906101000a900473ffffffffffffffffffffffffffffffffffffffff1673ffffffffffffffffffffffffffffffffffffffff161461112a576040517f08c379a000000000000000000000000000000000000000000000000000000000815260040161112190611e13565b60405180910390fd5b60006002828154811061113957fe5b906000526020600020906005020160040160146101000a81548160ff02191690831515021790555050565b6002818154811061117157fe5b906000526020600020906005020160040160149054906101000a900460ff166111cf576040517f08c379a00000000000000000000000000000000000000000000000000000000081526004016111c690611db3565b60405180910390fd5b6000600282815481106111de57fe5b906000526020600020906005020160040160009054906101000a900473ffffffffffffffffffffffffffffffffffffffff16905060006002838154811061122157fe5b906000526020600020906005020160030154905080341015611278576040517f08c379a000000000000000000000000000000000000000000000000000000000815260040161126f90611df3565b60405180910390fd5b6000600a348161128457fe5b049050600081340390508373ffffffffffffffffffffffffffffffffffffffff166108fc829081150290604051600060405180830381858888f193505050501580156112d4573d6000803e3d6000fd5b50600160009054906101000a900473ffffffffffffffffffffffffffffffffffffffff1673ffffffffffffffffffffffffffffffffffffffff166108fc839081150290604051600060405180830381858888f1935050505015801561133d573d6000803e3d6000fd5b50336002868154811061134c57fe5b906000526020600020906005020160040160006101000a81548173ffffffffffffffffffffffffffffffffffffffff021916908373ffffffffffffffffffffffffffffffffffffffff1602179055506000600286815481106113aa57fe5b906000526020600020906005020160040160146101000a81548160ff0219169083151502179055505050505050565b3373ffffffffffffffffffffffffffffffffffffffff16600283815481106113fd57fe5b906000526020600020906005020160040160009054906101000a900473ffffffffffffffffffffffffffffffffffffffff1673ffffffffffffffffffffffffffffffffffffffff1614611485576040517f08c379a000000000000000000000000000000000000000000000000000000000815260040161147c90611e13565b60405180910390fd5b806002838154811061149357fe5b9060005260206000209060050201600301819055505050565b3373ffffffffffffffffffffffffffffffffffffffff16600283815481106114d057fe5b906000526020600020906005020160040160009054906101000a900473ffffffffffffffffffffffffffffffffffffffff1673ffffffffffffffffffffffffffffffffffffffff1614611558576040517f08c379a000000000000000000000000000000000000000000000000000000000815260040161154f90611e13565b60405180910390fd5b806002838154811061156657fe5b9060005260206000209060050201600001908051906020019061158a92919061158f565b505050565b828054600181600116156101000203166002900490600052602060002090601f016020900481019282601f106115d057805160ff19168380011785556115fe565b828001600101855582156115fe579182015b828111156115fd5782518255916020019190600101906115e2565b5b50905061160b91906116bd565b5090565b6040518060c0016040528060608152602001606081526020016060815260200160008152602001600073ffffffffffffffffffffffffffffffffffffffff1681526020016000151581525090565b8280548282559060005260206000209081019282156116ac579160200282015b828111156116ab57825182908051906020019061169b92919061158f565b509160200191906001019061167d565b5b5090506116b991906116da565b5090565b5b808211156116d65760008160009055506001016116be565b5090565b5b808211156116fa57600081816116f191906116fe565b506001016116db565b5090565b50805460018160011615610100020316600290046000825580601f106117245750611743565b601f01602090049060005260206000209081019061174291906116bd565b5b50565b60008135905061175581612022565b92915050565b600082601f83011261176c57600080fd5b813561177f61177a82611e82565b611e55565b9150818183526020840193506020810190508360005b838110156117c557813586016117ab88826117cf565b845260208401935060208301925050600181019050611795565b5050505092915050565b600082601f8301126117e057600080fd5b81356117f36117ee82611eaa565b611e55565b9150808252602083016020830185838301111561180f57600080fd5b61181a838284611fcf565b50505092915050565b60008135905061183281612039565b92915050565b60006020828403121561184a57600080fd5b600061185884828501611746565b91505092915050565b6000806000806080858703121561187757600080fd5b600085013567ffffffffffffffff81111561189157600080fd5b61189d878288016117cf565b945050602085013567ffffffffffffffff8111156118ba57600080fd5b6118c6878288016117cf565b93505060406118d787828801611823565b925050606085013567ffffffffffffffff8111156118f457600080fd5b6119008782880161175b565b91505092959194509250565b60006020828403121561191e57600080fd5b600061192c84828501611823565b91505092915050565b6000806040838503121561194857600080fd5b600061195685828601611823565b925050602083013567ffffffffffffffff81111561197357600080fd5b61197f858286016117cf565b9150509250929050565b6000806040838503121561199c57600080fd5b60006119aa85828601611823565b92505060206119bb85828601611823565b9150509250929050565b60006119d18383611af5565b905092915050565b60006119e58383611c54565b905092915050565b6119f681611f87565b82525050565b6000611a0782611ef6565b611a118185611f31565b935083602082028501611a2385611ed6565b8060005b85811015611a5f5784840389528151611a4085826119c5565b9450611a4b83611f17565b925060208a01995050600181019050611a27565b50829750879550505050505092915050565b6000611a7c82611f01565b611a868185611f42565b935083602082028501611a9885611ee6565b8060005b85811015611ad45784840389528151611ab585826119d9565b9450611ac083611f24565b925060208a01995050600181019050611a9c565b50829750879550505050505092915050565b611aef81611f99565b82525050565b6000611b0082611f0c565b611b0a8185611f53565b9350611b1a818560208601611fde565b611b2381612011565b840191505092915050565b6000611b3b601283611f64565b91507f6e276573742070617320656e2076656e746500000000000000000000000000006000830152602082019050919050565b6000611b7b602083611f64565b91507f6c65207072697820646f697420657472652073757065726965757220612031306000830152602082019050919050565b6000611bbb601283611f64565b91507f4d616e717565206465206c61207468756e6500000000000000000000000000006000830152602082019050919050565b6000611bfb602183611f64565b91507f7475206e27657374207061732070726f7072696574616972652064752062696560008301527f6e000000000000000000000000000000000000000000000000000000000000006020830152604082019050919050565b600060c0830160008301518482036000860152611c718282611af5565b91505060208301518482036020860152611c8b8282611af5565b91505060408301518482036040860152611ca582826119fc565b9150506060830151611cba6060860182611d82565b506080830151611ccd60808601826119ed565b5060a0830151611ce060a0860182611ae6565b508091505092915050565b600060c0830160008301518482036000860152611d088282611af5565b91505060208301518482036020860152611d228282611af5565b91505060408301518482036040860152611d3c82826119fc565b9150506060830151611d516060860182611d82565b506080830151611d6460808601826119ed565b5060a0830151611d7760a0860182611ae6565b508091505092915050565b611d8b81611fc5565b82525050565b60006020820190508181036000830152611dab8184611a71565b905092915050565b60006020820190508181036000830152611dcc81611b2e565b9050919050565b60006020820190508181036000830152611dec81611b6e565b9050919050565b60006020820190508181036000830152611e0c81611bae565b9050919050565b60006020820190508181036000830152611e2c81611bee565b9050919050565b60006020820190508181036000830152611e4d8184611ceb565b905092915050565b6000604051905081810181811067ffffffffffffffff82111715611e7857600080fd5b8060405250919050565b600067ffffffffffffffff821115611e9957600080fd5b602082029050602081019050919050565b600067ffffffffffffffff821115611ec157600080fd5b601f19601f8301169050602081019050919050565b6000819050602082019050919050565b6000819050602082019050919050565b600081519050919050565b600081519050919050565b600081519050919050565b6000602082019050919050565b6000602082019050919050565b600082825260208201905092915050565b600082825260208201905092915050565b600082825260208201905092915050565b600082825260208201905092915050565b6000611f8082611fa5565b9050919050565b6000611f9282611fa5565b9050919050565b60008115159050919050565b600073ffffffffffffffffffffffffffffffffffffffff82169050919050565b6000819050919050565b82818337600083830152505050565b60005b83811015611ffc578082015181840152602081019050611fe1565b8381111561200b576000848401525b50505050565b6000601f19601f8301169050919050565b61202b81611f75565b811461203657600080fd5b50565b61204281611fc5565b811461204d57600080fd5b5056fea2646970667358221220b35e721227c14db882537932e38dd3ca214668a8ff641c08ac6448d5c617ddf664736f6c634300060c0033",
  "immutableReferences": {},
  "source": "// SPDX-License-Identifier: MIT\npragma solidity >=0.6.0 <0.8.0;\npragma experimental ABIEncoderV2;\n\ncontract Marketplace {\n    struct estate {\n        string _name;\n        string _postalAddress;\n        string[] _images;\n        uint _price;\n        address payable _ownerEstate;\n        bool _selling;\n    }\n\n    string[] _sales;\n    address payable _owner;\n    estate[] _estates;\n\n    mapping(address => uint[]) _ownerEstate;\n    mapping(uint => estate) _idEstate;\n\n    constructor() public {\n        _owner = msg.sender;\n    }\n\n\n    function createEstate(string memory nom, string memory adres, uint price, string[] memory img) public {\n        require(price > 10, \"le prix doit etre superieur a 10\");\n        estate memory create = estate(nom, adres, img, price, msg.sender, false);\n        _estates.push(create);\n        uint id = _estates.length - 1;\n        _idEstate[id] = create;\n        _ownerEstate[msg.sender].push(id);\n    }\n\n    function setEstateSale(uint id) public {\n        require(_estates[id]._ownerEstate == msg.sender, \"tu n'est pas proprietaire du bien\");\n        _estates[id]._selling = true;\n    }\n\n    function setPrice(uint id, uint newPrice) public {\n        require(_estates[id]._ownerEstate == msg.sender, \"tu n'est pas proprietaire du bien\");\n        _estates[id]._price = newPrice;\n    }\n\n    function setPostalAddress(uint id, string memory newPostalAddress) public {\n        require(_estates[id]._ownerEstate == msg.sender, \"tu n'est pas proprietaire du bien\");\n        _estates[id]._postalAddress = newPostalAddress;\n    }\n\n    function setName(uint id, string memory newName) public {\n        require(_estates[id]._ownerEstate == msg.sender, \"tu n'est pas proprietaire du bien\");\n        _estates[id]._name = newName;\n    }\n\n    function cancelEstateSale(uint id) public {\n        require(_estates[id]._ownerEstate == msg.sender, \"tu n'est pas proprietaire du bien\");\n        _estates[id]._selling = false;\n    }\n\n    function BuyEstate(uint id) public payable {\n        require(_estates[id]._selling, \"n'est pas en vente\");\n\n        address payable seller = _estates[id]._ownerEstate;\n\n        uint price = _estates[id]._price;\n\n        require(msg.value >= price, 'Manque de la thune');\n\n        uint commission = msg.value / 10;\n        uint sale = msg.value - commission;\n\n        seller.transfer(sale);\n        _owner.transfer(commission);\n\n        _estates[id]._ownerEstate = msg.sender;\n        _estates[id]._selling = false;\n    }\n\n    function getAllEstates() public view returns (estate[] memory){\n        return _estates;\n    }\n\n    function getEstateByAddress(address addr) public view returns (estate[] memory){\n        estate[] memory estatesList;\n        uint[] memory estateIds = _ownerEstate[addr];\n        for (uint i = 0; i < estateIds.length; i++) {\n            estatesList[i] = _idEstate[estateIds[i]];\n        }\n        return estatesList;\n    }\n\n    function getEstateById(uint id) public view returns (estate memory){\n        return _idEstate[id];\n    }\n}",
  "sourcePath": "/Users/ismaelmohamed/Documents/Courses/supinfo/5BLOC/marketplace/src/contracts/Marketplace.sol",
  "compiler": {
    "name": "solc",
    "version": "0.6.12+commit.27d51765.Emscripten.clang"
  },
  "schemaVersion": "3.3.3",
  "updatedAt": "2021-02-03T17:24:25.955Z",
  "networkType": "ethereum",
  "devdoc": {
    "kind": "dev",
    "methods": {},
    "version": 1
  },
  "userdoc": {
    "kind": "user",
    "methods": {},
    "version": 1
  }
}